:100000000C9485000C94BD000C94A2000C94A200EA
:100010000C94A2000C94A2000C94A2000C94A200D8
:100020000C94A2000C94A2000C94A2000C94A200C8
:100030000C94A2000C94A2000C94A2000C94A200B8
:100040000C94A2000C94A2000C94A2000C94A200A8
:100050000C94A2000C94A2000C94A2000C94A20098
:100060000C94A2000C94A2000600FF0901A1010952
:1000700001150026FF007508950881020902150088
:1000800026FF00750895089102C0090222000101AF
:100090000080320904000001030000000921010171
:1000A00000012222000705810308000A1201100145
:1000B00000000008C016DF0500010102000118035E
:1000C00042007500740074006F006E004700690004
:1000D0007A006D006F0030037400650072006D00DF
:1000E00069006E0061006C00320038002E00620072
:1000F0006C006F006700730070006F0074002E00CA
:1001000063006F006D000403090411241FBECFEFCC
:10011000D8E0DEBFCDBF11E0A0E0B1E0ECECF8E04C
:1001200002C005900D92AC30B107D9F721E0ACE0E8
:10013000B1E001C01D92AF34B207E1F70E94BA02EC
:100140000C9464040C940000A82FB92F80E090E078
:1001500041E050EA609530E009C02D9182279795E3
:10016000879510F084279527305EC8F36F5FA8F35A
:100170000895EADF8D939D930895CF93CFB7CF93E2
:10018000C3954C9BE9F74C9B09C04C9B07C04C9B0B
:1001900005C04C9B03C04C9B01C0A6C0DF93C0911F
:1001A0003201DD27C75CDE4F4C9B02C0DF91EBCFF5
:1001B0002F930F931F9309B12FEF04FB20F94F9357
:1001C0003F9319B14FEF012704FB21F93BE031C008
:1001D0004E7F012F19B1216028C0102F4D7F226062
:1001E000000009B129C04B7F2460012F000019B124
:1001F0002BC019B1477F28602AC04F7E09B120610A
:100200002CC04F7D19B120622FC04F7B09B12064F3
:1002100032C0422709B149934FEF0000102714FB69
:1002200020F919B11471C9F1297F91F2012704FB5A
:1002300021F909B1237F89F2315058F1102714FBBD
:1002400022F919B1277E79F2012704FB23F92F7CCB
:1002500081F209B1102714FB24F92F7971F200C043
:1002600019B1012704FB25F92F7359F200C009B118
:10027000102714FB26F9223040F200C019B10127E3
:1002800004FB27F9243028F64F77206819B10000C5
:10029000F9CF11E01CBB00271CC03B503195C31B9C
:1002A000D04011E01CBB0881033C11F10B3401F17B
:1002B000209130011981110F1213EDCF4A81441F93
:1002C000093659F10D3211F0013E29F74F7009F04E
:1002D000042F009337013F914F911F910F912F9160
:1002E000DF91CCB3C0FD4CCFCF91CFBFCF9118954C
:1002F00020913701222379F310913501112369F5FB
:1003000034306AF13093350120933101109132017C
:100310003BE0311B3093320122C0009135010130A6
:10032000E4F40AE54F7049F430910A0134FD19C034
:1003300000930A01C9E1D1E018C03091240134FDD5
:1003400010C000932401C5E2D1E00FC02795A8F4A6
:100350005150A9F4220F0000F9CF4AE503C042ED45
:1003600001C0432FC4E1D0E032E01AB114615C9ABD
:100370001AB90BB120E414E15F93012756E00BB9E1
:10038000279520F4515021F4220FF9CF012756E090
:1003900000003B5A0BB9D0F2279528F4515029F4AC
:1003A000220F0000F9CF012756E027950BB920F462
:1003B000515021F4220FF9CF012756E02991332320
:1003C0000BB921F60B7E10913601110FC651D040AA
:1003D0000BB911F01093300111E01CBB00611AB190
:1003E0001B7E402F4B7E5F9100C000C00BB91AB935
:1003F0004BB971CF90917C008F70907F892B809347
:100400007C0080917A00806480937A0080917A00E9
:1004100084FFFCCF80917A00806180937A00809184
:100420007800909179000895EF92FF920F931F93B7
:10043000CF93DF937C0105E010E0C0E0D0E0C7017E
:100440000E94FA01C80FD91F8FE697E10197F1F7D3
:1004500000C000000150110991F7CE0165E070E085
:100460000E945004CB01DF91CF911F910F91FF901B
:10047000EF900895EAE7F0E086E0808380E48093DF
:100480007C0080818068808380E090E00C9414027E
:10049000FC0190819076903241F491E08181893025
:1004A00009F090E0892F8195089580E0089581E01A
:1004B000089508950F931F93CF93DF9301E011E008
:1004C000C0E0D0E084E090E00E941402F8012191A5
:1004D00031918F01821B930B97FF03C091958195FA
:1004E0009109C3973CF484E380930D01CF5FC093DF
:1004F0000C0104C02196C430D10521F7DF91CF91C2
:100500001F910F91089585E090E00E941402E1E0B0
:10051000F1E020E030E041915191BC01641B750B8A
:10052000AB0177FF03C05195419551094333510504
:100530003CF484E380930D012B5F20930C0108951C
:100540002F5F3F4F2430310531F70895E1E1F1E0AD
:1005500090E49083818368E0CF010C94FF02E1E195
:10056000F1E081E4808380910C01818368E0CF0118
:100570000C94FF020E943A020E944304549A8AEFAC
:1005800090E0EFE6F7E13197F1F700C00000019746
:10059000C1F754987894C3E40E94220380910E011D
:1005A00090910F01019690930F0180930E01893A6B
:1005B000914690F3C0930D010E945A0280910D0163
:1005C000833411F40E94830280910D019091000107
:1005D000891781F0843329F0833441F40E94AF02FB
:1005E00005C080910C0190E00E94A60280910D014F
:1005F0008093000110920F0110920E01CDCFCF9386
:10060000C62F2091240124FF07C03091250128E83E
:1006100023272093250103C02AE520932401DC0130
:10062000E6E2F1E08C2F8E0F9D9191938E13FCCF1B
:100630006C2F86E291E00E94B900CC5FC093240148
:10064000CF910895CF93DF9360913501635067FD9B
:10065000C7C080913201CCE0D0E0C81BD109C75C93
:10066000DE4F80913101803120F4CE010E94590289
:10067000B5C08D3209F0A2C0683009F0AFC083EC7C
:10068000809319018AE580930A01109210018881F4
:10069000807641F0CE010E944802982F8F3F09F4E6
:1006A0007CC082C09A81109222018981811106C08A
:1006B0001092230122E231E092E06AC0853019F401
:1006C0009093360162C0863009F049C08B81813039
:1006D00041F48CEA90E0909334018093330192E1ED
:1006E0003AC0823019F48AE890E02EC08330F1F4E9
:1006F000911108C086E091E090933401809333011A
:1007000094E029C0913041F486ED90E0909334015B
:100710008093330190E31FC09230E1F48EEB90E0C0
:10072000909334018093330198E115C0813241F4F4
:100730008CE990E0909334018093330199E00BC0F1
:10074000823241F488E690E0909334018093330143
:1007500092E201C090E080E48093100125C08830CF
:1007600069F0893019F4909338010FC08A3049F04C
:100770008B3059F48BE48093250107C028E331E0E6
:1007800002C022E231E091E003C022E231E090E0D9
:10079000309334012093330107C0888187FD9E8107
:1007A00080E88093100107C08F81811104C08E8181
:1007B000891708F4982F9093090110C080911001B7
:1007C00087FF0CC0CE010E9457028F3F21F48EE1BB
:1007D00080930A0103C08111109209011092350122
:1007E00080910A0184FF42C0809109018F3F09F482
:1007F0003DC0C82F893008F0C8E08C1B80930901E8
:100800009091190188E8892780931901CC2301F17F
:100810008091330190913401309110012C2F280FD9
:10082000AAE1B1E0FC0136FF06C034913D93319658
:100830002E13FBCF04C031913D932E13FCCF0196B4
:100840002FEF2C0F820F911D909334018093330171
:100850006C2F8AE191E00E94B90064E06C0F6C306B
:1008600019F08FEF8093090160930A0184E199B137
:10087000947131F48150D9F7109236011092300101
:10088000DF91CF910895E9E6F0E080818260808376
:10089000E89AE4E2F1E08BE481838AE580830895BD
:1008A000AA1BBB1B51E107C0AA1FBB1FA617B70796
:1008B00010F0A61BB70B881F991F5A95A9F78095B2
:0C08C0009095BC01CD010895F894FFCF85
:0C08CC0043320366029901CD00FF5A0080
:00000001FF
